{
  "_format": "hh-sol-artifact-1",
  "contractName": "LensHub",
  "sourceName": "contracts/core/LensHub.sol",
  "abi": [
    {
      "inputs": [
        {
          "internalType": "address",
          "name": "followNFTImpl",
          "type": "address"
        },
        {
          "internalType": "address",
          "name": "collectNFTImpl",
          "type": "address"
        }
      ],
      "stateMutability": "nonpayable",
      "type": "constructor"
    },
    {
      "inputs": [],
      "name": "CallerNotCollectNFT",
      "type": "error"
    },
    {
      "inputs": [],
      "name": "CallerNotFollowNFT",
      "type": "error"
    },
    {
      "inputs": [],
      "name": "CannotInitImplementation",
      "type": "error"
    },
    {
      "inputs": [],
      "name": "EmergencyAdminCannotUnpause",
      "type": "error"
    },
    {
      "inputs": [],
      "name": "InitParamsInvalid",
      "type": "error"
    },
    {
      "inputs": [],
      "name": "Initialized",
      "type": "error"
    },
    {
      "inputs": [],
      "name": "NotGovernance",
      "type": "error"
    },
    {
      "inputs": [],
      "name": "NotGovernanceOrEmergencyAdmin",
      "type": "error"
    },
    {
      "inputs": [],
      "name": "NotOwnerOrApproved",
      "type": "error"
    },
    {
      "inputs": [],
      "name": "NotProfileOwner",
      "type": "error"
    },
    {
      "inputs": [],
      "name": "NotProfileOwnerOrDispatcher",
      "type": "error"
    },
    {
      "inputs": [],
      "name": "Paused",
      "type": "error"
    },
    {
      "inputs": [],
      "name": "ProfileCreatorNotWhitelisted",
      "type": "error"
    },
    {
      "inputs": [],
      "name": "ProfileImageURILengthInvalid",
      "type": "error"
    },
    {
      "inputs": [],
      "name": "PublicationDoesNotExist",
      "type": "error"
    },
    {
      "inputs": [],
      "name": "PublishingPaused",
      "type": "error"
    },
    {
      "inputs": [],
      "name": "SignatureExpired",
      "type": "error"
    },
    {
      "inputs": [],
      "name": "SignatureInvalid",
      "type": "error"
    },
    {
      "inputs": [],
      "name": "ZeroSpender",
      "type": "error"
    },
    {
      "anonymous": false,
      "inputs": [
        {
          "indexed": true,
          "internalType": "address",
          "name": "owner",
          "type": "address"
        },
        {
          "indexed": true,
          "internalType": "address",
          "name": "approved",
          "type": "address"
        },
        {
          "indexed": true,
          "internalType": "uint256",
          "name": "tokenId",
          "type": "uint256"
        }
      ],
      "name": "Approval",
      "type": "event"
    },
    {
      "anonymous": false,
      "inputs": [
        {
          "indexed": true,
          "internalType": "address",
          "name": "owner",
          "type": "address"
        },
        {
          "indexed": true,
          "internalType": "address",
          "name": "operator",
          "type": "address"
        },
        {
          "indexed": false,
          "internalType": "bool",
          "name": "approved",
          "type": "bool"
        }
      ],
      "name": "ApprovalForAll",
      "type": "event"
    },
    {
      "anonymous": false,
      "inputs": [
        {
          "indexed": true,
          "internalType": "address",
          "name": "from",
          "type": "address"
        },
        {
          "indexed": true,
          "internalType": "address",
          "name": "to",
          "type": "address"
        },
        {
          "indexed": true,
          "internalType": "uint256",
          "name": "tokenId",
          "type": "uint256"
        }
      ],
      "name": "Transfer",
      "type": "event"
    },
    {
      "inputs": [
        {
          "internalType": "address",
          "name": "to",
          "type": "address"
        },
        {
          "internalType": "uint256",
          "name": "tokenId",
          "type": "uint256"
        }
      ],
      "name": "approve",
      "outputs": [],
      "stateMutability": "nonpayable",
      "type": "function"
    },
    {
      "inputs": [
        {
          "internalType": "address",
          "name": "owner",
          "type": "address"
        }
      ],
      "name": "balanceOf",
      "outputs": [
        {
          "internalType": "uint256",
          "name": "",
          "type": "uint256"
        }
      ],
      "stateMutability": "view",
      "type": "function"
    },
    {
      "inputs": [
        {
          "internalType": "uint256",
          "name": "tokenId",
          "type": "uint256"
        }
      ],
      "name": "burn",
      "outputs": [],
      "stateMutability": "nonpayable",
      "type": "function"
    },
    {
      "inputs": [
        {
          "internalType": "uint256",
          "name": "tokenId",
          "type": "uint256"
        },
        {
          "components": [
            {
              "internalType": "uint8",
              "name": "v",
              "type": "uint8"
            },
            {
              "internalType": "bytes32",
              "name": "r",
              "type": "bytes32"
            },
            {
              "internalType": "bytes32",
              "name": "s",
              "type": "bytes32"
            },
            {
              "internalType": "uint256",
              "name": "deadline",
              "type": "uint256"
            }
          ],
          "internalType": "struct DataTypes.EIP712Signature",
          "name": "sig",
          "type": "tuple"
        }
      ],
      "name": "burnWithSig",
      "outputs": [],
      "stateMutability": "nonpayable",
      "type": "function"
    },
    {
      "inputs": [
        {
          "internalType": "uint256",
          "name": "profileId",
          "type": "uint256"
        },
        {
          "internalType": "uint256",
          "name": "pubId",
          "type": "uint256"
        },
        {
          "internalType": "bytes",
          "name": "data",
          "type": "bytes"
        }
      ],
      "name": "collect",
      "outputs": [
        {
          "internalType": "uint256",
          "name": "",
          "type": "uint256"
        }
      ],
      "stateMutability": "nonpayable",
      "type": "function"
    },
    {
      "inputs": [
        {
          "components": [
            {
              "internalType": "address",
              "name": "collector",
              "type": "address"
            },
            {
              "internalType": "uint256",
              "name": "profileId",
              "type": "uint256"
            },
            {
              "internalType": "uint256",
              "name": "pubId",
              "type": "uint256"
            },
            {
              "internalType": "bytes",
              "name": "data",
              "type": "bytes"
            },
            {
              "components": [
                {
                  "internalType": "uint8",
                  "name": "v",
                  "type": "uint8"
                },
                {
                  "internalType": "bytes32",
                  "name": "r",
                  "type": "bytes32"
                },
                {
                  "internalType": "bytes32",
                  "name": "s",
                  "type": "bytes32"
                },
                {
                  "internalType": "uint256",
                  "name": "deadline",
                  "type": "uint256"
                }
              ],
              "internalType": "struct DataTypes.EIP712Signature",
              "name": "sig",
              "type": "tuple"
            }
          ],
          "internalType": "struct DataTypes.CollectWithSigData",
          "name": "vars",
          "type": "tuple"
        }
      ],
      "name": "collectWithSig",
      "outputs": [
        {
          "internalType": "uint256",
          "name": "",
          "type": "uint256"
        }
      ],
      "stateMutability": "nonpayable",
      "type": "function"
    },
    {
      "inputs": [
        {
          "components": [
            {
              "internalType": "uint256",
              "name": "profileId",
              "type": "uint256"
            },
            {
              "internalType": "string",
              "name": "contentURI",
              "type": "string"
            },
            {
              "internalType": "uint256",
              "name": "profileIdPointed",
              "type": "uint256"
            },
            {
              "internalType": "uint256",
              "name": "pubIdPointed",
              "type": "uint256"
            },
            {
              "internalType": "bytes",
              "name": "referenceModuleData",
              "type": "bytes"
            },
            {
              "internalType": "address",
              "name": "collectModule",
              "type": "address"
            },
            {
              "internalType": "bytes",
              "name": "collectModuleInitData",
              "type": "bytes"
            },
            {
              "internalType": "address",
              "name": "referenceModule",
              "type": "address"
            },
            {
              "internalType": "bytes",
              "name": "referenceModuleInitData",
              "type": "bytes"
            }
          ],
          "internalType": "struct DataTypes.CommentData",
          "name": "vars",
          "type": "tuple"
        }
      ],
      "name": "comment",
      "outputs": [
        {
          "internalType": "uint256",
          "name": "",
          "type": "uint256"
        }
      ],
      "stateMutability": "nonpayable",
      "type": "function"
    },
    {
      "inputs": [
        {
          "components": [
            {
              "internalType": "uint256",
              "name": "profileId",
              "type": "uint256"
            },
            {
              "internalType": "string",
              "name": "contentURI",
              "type": "string"
            },
            {
              "internalType": "uint256",
              "name": "profileIdPointed",
              "type": "uint256"
            },
            {
              "internalType": "uint256",
              "name": "pubIdPointed",
              "type": "uint256"
            },
            {
              "internalType": "bytes",
              "name": "referenceModuleData",
              "type": "bytes"
            },
            {
              "internalType": "address",
              "name": "collectModule",
              "type": "address"
            },
            {
              "internalType": "bytes",
              "name": "collectModuleInitData",
              "type": "bytes"
            },
            {
              "internalType": "address",
              "name": "referenceModule",
              "type": "address"
            },
            {
              "internalType": "bytes",
              "name": "referenceModuleInitData",
              "type": "bytes"
            },
            {
              "components": [
                {
                  "internalType": "uint8",
                  "name": "v",
                  "type": "uint8"
                },
                {
                  "internalType": "bytes32",
                  "name": "r",
                  "type": "bytes32"
                },
                {
                  "internalType": "bytes32",
                  "name": "s",
                  "type": "bytes32"
                },
                {
                  "internalType": "uint256",
                  "name": "deadline",
                  "type": "uint256"
                }
              ],
              "internalType": "struct DataTypes.EIP712Signature",
              "name": "sig",
              "type": "tuple"
            }
          ],
          "internalType": "struct DataTypes.CommentWithSigData",
          "name": "vars",
          "type": "tuple"
        }
      ],
      "name": "commentWithSig",
      "outputs": [
        {
          "internalType": "uint256",
          "name": "",
          "type": "uint256"
        }
      ],
      "stateMutability": "nonpayable",
      "type": "function"
    },
    {
      "inputs": [
        {
          "components": [
            {
              "internalType": "address",
              "name": "to",
              "type": "address"
            },
            {
              "internalType": "string",
              "name": "handle",
              "type": "string"
            },
            {
              "internalType": "string",
              "name": "imageURI",
              "type": "string"
            },
            {
              "internalType": "address",
              "name": "followModule",
              "type": "address"
            },
            {
              "internalType": "bytes",
              "name": "followModuleInitData",
              "type": "bytes"
            },
            {
              "internalType": "string",
              "name": "followNFTURI",
              "type": "string"
            }
          ],
          "internalType": "struct DataTypes.CreateProfileData",
          "name": "vars",
          "type": "tuple"
        }
      ],
      "name": "createProfile",
      "outputs": [
        {
          "internalType": "uint256",
          "name": "",
          "type": "uint256"
        }
      ],
      "stateMutability": "nonpayable",
      "type": "function"
    },
    {
      "inputs": [
        {
          "internalType": "address",
          "name": "wallet",
          "type": "address"
        }
      ],
      "name": "defaultProfile",
      "outputs": [
        {
          "internalType": "uint256",
          "name": "",
          "type": "uint256"
        }
      ],
      "stateMutability": "view",
      "type": "function"
    },
    {
      "inputs": [
        {
          "internalType": "uint256",
          "name": "profileId",
          "type": "uint256"
        },
        {
          "internalType": "uint256",
          "name": "pubId",
          "type": "uint256"
        },
        {
          "internalType": "uint256",
          "name": "collectNFTId",
          "type": "uint256"
        },
        {
          "internalType": "address",
          "name": "from",
          "type": "address"
        },
        {
          "internalType": "address",
          "name": "to",
          "type": "address"
        }
      ],
      "name": "emitCollectNFTTransferEvent",
      "outputs": [],
      "stateMutability": "nonpayable",
      "type": "function"
    },
    {
      "inputs": [
        {
          "internalType": "uint256",
          "name": "profileId",
          "type": "uint256"
        },
        {
          "internalType": "uint256",
          "name": "followNFTId",
          "type": "uint256"
        },
        {
          "internalType": "address",
          "name": "from",
          "type": "address"
        },
        {
          "internalType": "address",
          "name": "to",
          "type": "address"
        }
      ],
      "name": "emitFollowNFTTransferEvent",
      "outputs": [],
      "stateMutability": "nonpayable",
      "type": "function"
    },
    {
      "inputs": [
        {
          "internalType": "uint256",
          "name": "tokenId",
          "type": "uint256"
        }
      ],
      "name": "exists",
      "outputs": [
        {
          "internalType": "bool",
          "name": "",
          "type": "bool"
        }
      ],
      "stateMutability": "view",
      "type": "function"
    },
    {
      "inputs": [
        {
          "internalType": "uint256[]",
          "name": "profileIds",
          "type": "uint256[]"
        },
        {
          "internalType": "bytes[]",
          "name": "datas",
          "type": "bytes[]"
        }
      ],
      "name": "follow",
      "outputs": [
        {
          "internalType": "uint256[]",
          "name": "",
          "type": "uint256[]"
        }
      ],
      "stateMutability": "nonpayable",
      "type": "function"
    },
    {
      "inputs": [
        {
          "components": [
            {
              "internalType": "address",
              "name": "follower",
              "type": "address"
            },
            {
              "internalType": "uint256[]",
              "name": "profileIds",
              "type": "uint256[]"
            },
            {
              "internalType": "bytes[]",
              "name": "datas",
              "type": "bytes[]"
            },
            {
              "components": [
                {
                  "internalType": "uint8",
                  "name": "v",
                  "type": "uint8"
                },
                {
                  "internalType": "bytes32",
                  "name": "r",
                  "type": "bytes32"
                },
                {
                  "internalType": "bytes32",
                  "name": "s",
                  "type": "bytes32"
                },
                {
                  "internalType": "uint256",
                  "name": "deadline",
                  "type": "uint256"
                }
              ],
              "internalType": "struct DataTypes.EIP712Signature",
              "name": "sig",
              "type": "tuple"
            }
          ],
          "internalType": "struct DataTypes.FollowWithSigData",
          "name": "vars",
          "type": "tuple"
        }
      ],
      "name": "followWithSig",
      "outputs": [
        {
          "internalType": "uint256[]",
          "name": "",
          "type": "uint256[]"
        }
      ],
      "stateMutability": "nonpayable",
      "type": "function"
    },
    {
      "inputs": [
        {
          "internalType": "uint256",
          "name": "tokenId",
          "type": "uint256"
        }
      ],
      "name": "getApproved",
      "outputs": [
        {
          "internalType": "address",
          "name": "",
          "type": "address"
        }
      ],
      "stateMutability": "view",
      "type": "function"
    },
    {
      "inputs": [
        {
          "internalType": "uint256",
          "name": "profileId",
          "type": "uint256"
        },
        {
          "internalType": "uint256",
          "name": "pubId",
          "type": "uint256"
        }
      ],
      "name": "getCollectModule",
      "outputs": [
        {
          "internalType": "address",
          "name": "",
          "type": "address"
        }
      ],
      "stateMutability": "view",
      "type": "function"
    },
    {
      "inputs": [
        {
          "internalType": "uint256",
          "name": "profileId",
          "type": "uint256"
        },
        {
          "internalType": "uint256",
          "name": "pubId",
          "type": "uint256"
        }
      ],
      "name": "getCollectNFT",
      "outputs": [
        {
          "internalType": "address",
          "name": "",
          "type": "address"
        }
      ],
      "stateMutability": "view",
      "type": "function"
    },
    {
      "inputs": [],
      "name": "getCollectNFTImpl",
      "outputs": [
        {
          "internalType": "address",
          "name": "",
          "type": "address"
        }
      ],
      "stateMutability": "view",
      "type": "function"
    },
    {
      "inputs": [
        {
          "internalType": "uint256",
          "name": "profileId",
          "type": "uint256"
        },
        {
          "internalType": "uint256",
          "name": "pubId",
          "type": "uint256"
        }
      ],
      "name": "getContentURI",
      "outputs": [
        {
          "internalType": "string",
          "name": "",
          "type": "string"
        }
      ],
      "stateMutability": "view",
      "type": "function"
    },
    {
      "inputs": [
        {
          "internalType": "uint256",
          "name": "profileId",
          "type": "uint256"
        }
      ],
      "name": "getDispatcher",
      "outputs": [
        {
          "internalType": "address",
          "name": "",
          "type": "address"
        }
      ],
      "stateMutability": "view",
      "type": "function"
    },
    {
      "inputs": [],
      "name": "getDomainSeparator",
      "outputs": [
        {
          "internalType": "bytes32",
          "name": "",
          "type": "bytes32"
        }
      ],
      "stateMutability": "view",
      "type": "function"
    },
    {
      "inputs": [
        {
          "internalType": "uint256",
          "name": "profileId",
          "type": "uint256"
        }
      ],
      "name": "getFollowModule",
      "outputs": [
        {
          "internalType": "address",
          "name": "",
          "type": "address"
        }
      ],
      "stateMutability": "view",
      "type": "function"
    },
    {
      "inputs": [
        {
          "internalType": "uint256",
          "name": "profileId",
          "type": "uint256"
        }
      ],
      "name": "getFollowNFT",
      "outputs": [
        {
          "internalType": "address",
          "name": "",
          "type": "address"
        }
      ],
      "stateMutability": "view",
      "type": "function"
    },
    {
      "inputs": [],
      "name": "getFollowNFTImpl",
      "outputs": [
        {
          "internalType": "address",
          "name": "",
          "type": "address"
        }
      ],
      "stateMutability": "view",
      "type": "function"
    },
    {
      "inputs": [
        {
          "internalType": "uint256",
          "name": "profileId",
          "type": "uint256"
        }
      ],
      "name": "getFollowNFTURI",
      "outputs": [
        {
          "internalType": "string",
          "name": "",
          "type": "string"
        }
      ],
      "stateMutability": "view",
      "type": "function"
    },
    {
      "inputs": [],
      "name": "getGovernance",
      "outputs": [
        {
          "internalType": "address",
          "name": "",
          "type": "address"
        }
      ],
      "stateMutability": "view",
      "type": "function"
    },
    {
      "inputs": [
        {
          "internalType": "uint256",
          "name": "profileId",
          "type": "uint256"
        }
      ],
      "name": "getHandle",
      "outputs": [
        {
          "internalType": "string",
          "name": "",
          "type": "string"
        }
      ],
      "stateMutability": "view",
      "type": "function"
    },
    {
      "inputs": [
        {
          "internalType": "uint256",
          "name": "profileId",
          "type": "uint256"
        }
      ],
      "name": "getProfile",
      "outputs": [
        {
          "components": [
            {
              "internalType": "uint256",
              "name": "pubCount",
              "type": "uint256"
            },
            {
              "internalType": "address",
              "name": "followModule",
              "type": "address"
            },
            {
              "internalType": "address",
              "name": "followNFT",
              "type": "address"
            },
            {
              "internalType": "string",
              "name": "handle",
              "type": "string"
            },
            {
              "internalType": "string",
              "name": "imageURI",
              "type": "string"
            },
            {
              "internalType": "string",
              "name": "followNFTURI",
              "type": "string"
            }
          ],
          "internalType": "struct DataTypes.ProfileStruct",
          "name": "",
          "type": "tuple"
        }
      ],
      "stateMutability": "view",
      "type": "function"
    },
    {
      "inputs": [],
      "name": "getProfileCounter",
      "outputs": [
        {
          "internalType": "uint256",
          "name": "",
          "type": "uint256"
        }
      ],
      "stateMutability": "view",
      "type": "function"
    },
    {
      "inputs": [
        {
          "internalType": "string",
          "name": "handle",
          "type": "string"
        }
      ],
      "name": "getProfileIdByHandle",
      "outputs": [
        {
          "internalType": "uint256",
          "name": "",
          "type": "uint256"
        }
      ],
      "stateMutability": "view",
      "type": "function"
    },
    {
      "inputs": [
        {
          "internalType": "uint256",
          "name": "profileId",
          "type": "uint256"
        },
        {
          "internalType": "uint256",
          "name": "pubId",
          "type": "uint256"
        }
      ],
      "name": "getPub",
      "outputs": [
        {
          "components": [
            {
              "internalType": "uint256",
              "name": "profileIdPointed",
              "type": "uint256"
            },
            {
              "internalType": "uint256",
              "name": "pubIdPointed",
              "type": "uint256"
            },
            {
              "internalType": "string",
              "name": "contentURI",
              "type": "string"
            },
            {
              "internalType": "address",
              "name": "referenceModule",
              "type": "address"
            },
            {
              "internalType": "address",
              "name": "collectModule",
              "type": "address"
            },
            {
              "internalType": "address",
              "name": "collectNFT",
              "type": "address"
            }
          ],
          "internalType": "struct DataTypes.PublicationStruct",
          "name": "",
          "type": "tuple"
        }
      ],
      "stateMutability": "view",
      "type": "function"
    },
    {
      "inputs": [
        {
          "internalType": "uint256",
          "name": "profileId",
          "type": "uint256"
        }
      ],
      "name": "getPubCount",
      "outputs": [
        {
          "internalType": "uint256",
          "name": "",
          "type": "uint256"
        }
      ],
      "stateMutability": "view",
      "type": "function"
    },
    {
      "inputs": [
        {
          "internalType": "uint256",
          "name": "profileId",
          "type": "uint256"
        },
        {
          "internalType": "uint256",
          "name": "pubId",
          "type": "uint256"
        }
      ],
      "name": "getPubPointer",
      "outputs": [
        {
          "internalType": "uint256",
          "name": "",
          "type": "uint256"
        },
        {
          "internalType": "uint256",
          "name": "",
          "type": "uint256"
        }
      ],
      "stateMutability": "view",
      "type": "function"
    },
    {
      "inputs": [
        {
          "internalType": "uint256",
          "name": "profileId",
          "type": "uint256"
        },
        {
          "internalType": "uint256",
          "name": "pubId",
          "type": "uint256"
        }
      ],
      "name": "getPubType",
      "outputs": [
        {
          "internalType": "enum DataTypes.PubType",
          "name": "",
          "type": "uint8"
        }
      ],
      "stateMutability": "view",
      "type": "function"
    },
    {
      "inputs": [
        {
          "internalType": "uint256",
          "name": "profileId",
          "type": "uint256"
        },
        {
          "internalType": "uint256",
          "name": "pubId",
          "type": "uint256"
        }
      ],
      "name": "getReferenceModule",
      "outputs": [
        {
          "internalType": "address",
          "name": "",
          "type": "address"
        }
      ],
      "stateMutability": "view",
      "type": "function"
    },
    {
      "inputs": [],
      "name": "getState",
      "outputs": [
        {
          "internalType": "enum DataTypes.ProtocolState",
          "name": "",
          "type": "uint8"
        }
      ],
      "stateMutability": "view",
      "type": "function"
    },
    {
      "inputs": [
        {
          "internalType": "string",
          "name": "name",
          "type": "string"
        },
        {
          "internalType": "string",
          "name": "symbol",
          "type": "string"
        },
        {
          "internalType": "address",
          "name": "newGovernance",
          "type": "address"
        }
      ],
      "name": "initialize",
      "outputs": [],
      "stateMutability": "nonpayable",
      "type": "function"
    },
    {
      "inputs": [
        {
          "internalType": "address",
          "name": "owner",
          "type": "address"
        },
        {
          "internalType": "address",
          "name": "operator",
          "type": "address"
        }
      ],
      "name": "isApprovedForAll",
      "outputs": [
        {
          "internalType": "bool",
          "name": "",
          "type": "bool"
        }
      ],
      "stateMutability": "view",
      "type": "function"
    },
    {
      "inputs": [
        {
          "internalType": "address",
          "name": "collectModule",
          "type": "address"
        }
      ],
      "name": "isCollectModuleWhitelisted",
      "outputs": [
        {
          "internalType": "bool",
          "name": "",
          "type": "bool"
        }
      ],
      "stateMutability": "view",
      "type": "function"
    },
    {
      "inputs": [
        {
          "internalType": "address",
          "name": "followModule",
          "type": "address"
        }
      ],
      "name": "isFollowModuleWhitelisted",
      "outputs": [
        {
          "internalType": "bool",
          "name": "",
          "type": "bool"
        }
      ],
      "stateMutability": "view",
      "type": "function"
    },
    {
      "inputs": [
        {
          "internalType": "address",
          "name": "profileCreator",
          "type": "address"
        }
      ],
      "name": "isProfileCreatorWhitelisted",
      "outputs": [
        {
          "internalType": "bool",
          "name": "",
          "type": "bool"
        }
      ],
      "stateMutability": "view",
      "type": "function"
    },
    {
      "inputs": [
        {
          "internalType": "address",
          "name": "referenceModule",
          "type": "address"
        }
      ],
      "name": "isReferenceModuleWhitelisted",
      "outputs": [
        {
          "internalType": "bool",
          "name": "",
          "type": "bool"
        }
      ],
      "stateMutability": "view",
      "type": "function"
    },
    {
      "inputs": [
        {
          "internalType": "uint256",
          "name": "tokenId",
          "type": "uint256"
        }
      ],
      "name": "mintTimestampOf",
      "outputs": [
        {
          "internalType": "uint256",
          "name": "",
          "type": "uint256"
        }
      ],
      "stateMutability": "view",
      "type": "function"
    },
    {
      "inputs": [
        {
          "components": [
            {
              "internalType": "uint256",
              "name": "profileId",
              "type": "uint256"
            },
            {
              "internalType": "uint256",
              "name": "profileIdPointed",
              "type": "uint256"
            },
            {
              "internalType": "uint256",
              "name": "pubIdPointed",
              "type": "uint256"
            },
            {
              "internalType": "bytes",
              "name": "referenceModuleData",
              "type": "bytes"
            },
            {
              "internalType": "address",
              "name": "referenceModule",
              "type": "address"
            },
            {
              "internalType": "bytes",
              "name": "referenceModuleInitData",
              "type": "bytes"
            }
          ],
          "internalType": "struct DataTypes.MirrorData",
          "name": "vars",
          "type": "tuple"
        }
      ],
      "name": "mirror",
      "outputs": [
        {
          "internalType": "uint256",
          "name": "",
          "type": "uint256"
        }
      ],
      "stateMutability": "nonpayable",
      "type": "function"
    },
    {
      "inputs": [
        {
          "components": [
            {
              "internalType": "uint256",
              "name": "profileId",
              "type": "uint256"
            },
            {
              "internalType": "uint256",
              "name": "profileIdPointed",
              "type": "uint256"
            },
            {
              "internalType": "uint256",
              "name": "pubIdPointed",
              "type": "uint256"
            },
            {
              "internalType": "bytes",
              "name": "referenceModuleData",
              "type": "bytes"
            },
            {
              "internalType": "address",
              "name": "referenceModule",
              "type": "address"
            },
            {
              "internalType": "bytes",
              "name": "referenceModuleInitData",
              "type": "bytes"
            },
            {
              "components": [
                {
                  "internalType": "uint8",
                  "name": "v",
                  "type": "uint8"
                },
                {
                  "internalType": "bytes32",
                  "name": "r",
                  "type": "bytes32"
                },
                {
                  "internalType": "bytes32",
                  "name": "s",
                  "type": "bytes32"
                },
                {
                  "internalType": "uint256",
                  "name": "deadline",
                  "type": "uint256"
                }
              ],
              "internalType": "struct DataTypes.EIP712Signature",
              "name": "sig",
              "type": "tuple"
            }
          ],
          "internalType": "struct DataTypes.MirrorWithSigData",
          "name": "vars",
          "type": "tuple"
        }
      ],
      "name": "mirrorWithSig",
      "outputs": [
        {
          "internalType": "uint256",
          "name": "",
          "type": "uint256"
        }
      ],
      "stateMutability": "nonpayable",
      "type": "function"
    },
    {
      "inputs": [],
      "name": "name",
      "outputs": [
        {
          "internalType": "string",
          "name": "",
          "type": "string"
        }
      ],
      "stateMutability": "view",
      "type": "function"
    },
    {
      "inputs": [
        {
          "internalType": "uint256",
          "name": "tokenId",
          "type": "uint256"
        }
      ],
      "name": "ownerOf",
      "outputs": [
        {
          "internalType": "address",
          "name": "",
          "type": "address"
        }
      ],
      "stateMutability": "view",
      "type": "function"
    },
    {
      "inputs": [
        {
          "internalType": "address",
          "name": "spender",
          "type": "address"
        },
        {
          "internalType": "uint256",
          "name": "tokenId",
          "type": "uint256"
        },
        {
          "components": [
            {
              "internalType": "uint8",
              "name": "v",
              "type": "uint8"
            },
            {
              "internalType": "bytes32",
              "name": "r",
              "type": "bytes32"
            },
            {
              "internalType": "bytes32",
              "name": "s",
              "type": "bytes32"
            },
            {
              "internalType": "uint256",
              "name": "deadline",
              "type": "uint256"
            }
          ],
          "internalType": "struct DataTypes.EIP712Signature",
          "name": "sig",
          "type": "tuple"
        }
      ],
      "name": "permit",
      "outputs": [],
      "stateMutability": "nonpayable",
      "type": "function"
    },
    {
      "inputs": [
        {
          "internalType": "address",
          "name": "owner",
          "type": "address"
        },
        {
          "internalType": "address",
          "name": "operator",
          "type": "address"
        },
        {
          "internalType": "bool",
          "name": "approved",
          "type": "bool"
        },
        {
          "components": [
            {
              "internalType": "uint8",
              "name": "v",
              "type": "uint8"
            },
            {
              "internalType": "bytes32",
              "name": "r",
              "type": "bytes32"
            },
            {
              "internalType": "bytes32",
              "name": "s",
              "type": "bytes32"
            },
            {
              "internalType": "uint256",
              "name": "deadline",
              "type": "uint256"
            }
          ],
          "internalType": "struct DataTypes.EIP712Signature",
          "name": "sig",
          "type": "tuple"
        }
      ],
      "name": "permitForAll",
      "outputs": [],
      "stateMutability": "nonpayable",
      "type": "function"
    },
    {
      "inputs": [
        {
          "components": [
            {
              "internalType": "uint256",
              "name": "profileId",
              "type": "uint256"
            },
            {
              "internalType": "string",
              "name": "contentURI",
              "type": "string"
            },
            {
              "internalType": "address",
              "name": "collectModule",
              "type": "address"
            },
            {
              "internalType": "bytes",
              "name": "collectModuleInitData",
              "type": "bytes"
            },
            {
              "internalType": "address",
              "name": "referenceModule",
              "type": "address"
            },
            {
              "internalType": "bytes",
              "name": "referenceModuleInitData",
              "type": "bytes"
            }
          ],
          "internalType": "struct DataTypes.PostData",
          "name": "vars",
          "type": "tuple"
        }
      ],
      "name": "post",
      "outputs": [
        {
          "internalType": "uint256",
          "name": "",
          "type": "uint256"
        }
      ],
      "stateMutability": "nonpayable",
      "type": "function"
    },
    {
      "inputs": [
        {
          "components": [
            {
              "internalType": "uint256",
              "name": "profileId",
              "type": "uint256"
            },
            {
              "internalType": "string",
              "name": "contentURI",
              "type": "string"
            },
            {
              "internalType": "address",
              "name": "collectModule",
              "type": "address"
            },
            {
              "internalType": "bytes",
              "name": "collectModuleInitData",
              "type": "bytes"
            },
            {
              "internalType": "address",
              "name": "referenceModule",
              "type": "address"
            },
            {
              "internalType": "bytes",
              "name": "referenceModuleInitData",
              "type": "bytes"
            },
            {
              "components": [
                {
                  "internalType": "uint8",
                  "name": "v",
                  "type": "uint8"
                },
                {
                  "internalType": "bytes32",
                  "name": "r",
                  "type": "bytes32"
                },
                {
                  "internalType": "bytes32",
                  "name": "s",
                  "type": "bytes32"
                },
                {
                  "internalType": "uint256",
                  "name": "deadline",
                  "type": "uint256"
                }
              ],
              "internalType": "struct DataTypes.EIP712Signature",
              "name": "sig",
              "type": "tuple"
            }
          ],
          "internalType": "struct DataTypes.PostWithSigData",
          "name": "vars",
          "type": "tuple"
        }
      ],
      "name": "postWithSig",
      "outputs": [
        {
          "internalType": "uint256",
          "name": "",
          "type": "uint256"
        }
      ],
      "stateMutability": "nonpayable",
      "type": "function"
    },
    {
      "inputs": [
        {
          "internalType": "address",
          "name": "from",
          "type": "address"
        },
        {
          "internalType": "address",
          "name": "to",
          "type": "address"
        },
        {
          "internalType": "uint256",
          "name": "tokenId",
          "type": "uint256"
        }
      ],
      "name": "safeTransferFrom",
      "outputs": [],
      "stateMutability": "nonpayable",
      "type": "function"
    },
    {
      "inputs": [
        {
          "internalType": "address",
          "name": "from",
          "type": "address"
        },
        {
          "internalType": "address",
          "name": "to",
          "type": "address"
        },
        {
          "internalType": "uint256",
          "name": "tokenId",
          "type": "uint256"
        },
        {
          "internalType": "bytes",
          "name": "_data",
          "type": "bytes"
        }
      ],
      "name": "safeTransferFrom",
      "outputs": [],
      "stateMutability": "nonpayable",
      "type": "function"
    },
    {
      "inputs": [
        {
          "internalType": "address",
          "name": "operator",
          "type": "address"
        },
        {
          "internalType": "bool",
          "name": "approved",
          "type": "bool"
        }
      ],
      "name": "setApprovalForAll",
      "outputs": [],
      "stateMutability": "nonpayable",
      "type": "function"
    },
    {
      "inputs": [
        {
          "internalType": "uint256",
          "name": "profileId",
          "type": "uint256"
        }
      ],
      "name": "setDefaultProfile",
      "outputs": [],
      "stateMutability": "nonpayable",
      "type": "function"
    },
    {
      "inputs": [
        {
          "components": [
            {
              "internalType": "address",
              "name": "wallet",
              "type": "address"
            },
            {
              "internalType": "uint256",
              "name": "profileId",
              "type": "uint256"
            },
            {
              "components": [
                {
                  "internalType": "uint8",
                  "name": "v",
                  "type": "uint8"
                },
                {
                  "internalType": "bytes32",
                  "name": "r",
                  "type": "bytes32"
                },
                {
                  "internalType": "bytes32",
                  "name": "s",
                  "type": "bytes32"
                },
                {
                  "internalType": "uint256",
                  "name": "deadline",
                  "type": "uint256"
                }
              ],
              "internalType": "struct DataTypes.EIP712Signature",
              "name": "sig",
              "type": "tuple"
            }
          ],
          "internalType": "struct DataTypes.SetDefaultProfileWithSigData",
          "name": "vars",
          "type": "tuple"
        }
      ],
      "name": "setDefaultProfileWithSig",
      "outputs": [],
      "stateMutability": "nonpayable",
      "type": "function"
    },
    {
      "inputs": [
        {
          "internalType": "uint256",
          "name": "profileId",
          "type": "uint256"
        },
        {
          "internalType": "address",
          "name": "dispatcher",
          "type": "address"
        }
      ],
      "name": "setDispatcher",
      "outputs": [],
      "stateMutability": "nonpayable",
      "type": "function"
    },
    {
      "inputs": [
        {
          "components": [
            {
              "internalType": "uint256",
              "name": "profileId",
              "type": "uint256"
            },
            {
              "internalType": "address",
              "name": "dispatcher",
              "type": "address"
            },
            {
              "components": [
                {
                  "internalType": "uint8",
                  "name": "v",
                  "type": "uint8"
                },
                {
                  "internalType": "bytes32",
                  "name": "r",
                  "type": "bytes32"
                },
                {
                  "internalType": "bytes32",
                  "name": "s",
                  "type": "bytes32"
                },
                {
                  "internalType": "uint256",
                  "name": "deadline",
                  "type": "uint256"
                }
              ],
              "internalType": "struct DataTypes.EIP712Signature",
              "name": "sig",
              "type": "tuple"
            }
          ],
          "internalType": "struct DataTypes.SetDispatcherWithSigData",
          "name": "vars",
          "type": "tuple"
        }
      ],
      "name": "setDispatcherWithSig",
      "outputs": [],
      "stateMutability": "nonpayable",
      "type": "function"
    },
    {
      "inputs": [
        {
          "internalType": "address",
          "name": "newEmergencyAdmin",
          "type": "address"
        }
      ],
      "name": "setEmergencyAdmin",
      "outputs": [],
      "stateMutability": "nonpayable",
      "type": "function"
    },
    {
      "inputs": [
        {
          "internalType": "uint256",
          "name": "profileId",
          "type": "uint256"
        },
        {
          "internalType": "address",
          "name": "followModule",
          "type": "address"
        },
        {
          "internalType": "bytes",
          "name": "followModuleInitData",
          "type": "bytes"
        }
      ],
      "name": "setFollowModule",
      "outputs": [],
      "stateMutability": "nonpayable",
      "type": "function"
    },
    {
      "inputs": [
        {
          "components": [
            {
              "internalType": "uint256",
              "name": "profileId",
              "type": "uint256"
            },
            {
              "internalType": "address",
              "name": "followModule",
              "type": "address"
            },
            {
              "internalType": "bytes",
              "name": "followModuleInitData",
              "type": "bytes"
            },
            {
              "components": [
                {
                  "internalType": "uint8",
                  "name": "v",
                  "type": "uint8"
                },
                {
                  "internalType": "bytes32",
                  "name": "r",
                  "type": "bytes32"
                },
                {
                  "internalType": "bytes32",
                  "name": "s",
                  "type": "bytes32"
                },
                {
                  "internalType": "uint256",
                  "name": "deadline",
                  "type": "uint256"
                }
              ],
              "internalType": "struct DataTypes.EIP712Signature",
              "name": "sig",
              "type": "tuple"
            }
          ],
          "internalType": "struct DataTypes.SetFollowModuleWithSigData",
          "name": "vars",
          "type": "tuple"
        }
      ],
      "name": "setFollowModuleWithSig",
      "outputs": [],
      "stateMutability": "nonpayable",
      "type": "function"
    },
    {
      "inputs": [
        {
          "internalType": "uint256",
          "name": "profileId",
          "type": "uint256"
        },
        {
          "internalType": "string",
          "name": "followNFTURI",
          "type": "string"
        }
      ],
      "name": "setFollowNFTURI",
      "outputs": [],
      "stateMutability": "nonpayable",
      "type": "function"
    },
    {
      "inputs": [
        {
          "components": [
            {
              "internalType": "uint256",
              "name": "profileId",
              "type": "uint256"
            },
            {
              "internalType": "string",
              "name": "followNFTURI",
              "type": "string"
            },
            {
              "components": [
                {
                  "internalType": "uint8",
                  "name": "v",
                  "type": "uint8"
                },
                {
                  "internalType": "bytes32",
                  "name": "r",
                  "type": "bytes32"
                },
                {
                  "internalType": "bytes32",
                  "name": "s",
                  "type": "bytes32"
                },
                {
                  "internalType": "uint256",
                  "name": "deadline",
                  "type": "uint256"
                }
              ],
              "internalType": "struct DataTypes.EIP712Signature",
              "name": "sig",
              "type": "tuple"
            }
          ],
          "internalType": "struct DataTypes.SetFollowNFTURIWithSigData",
          "name": "vars",
          "type": "tuple"
        }
      ],
      "name": "setFollowNFTURIWithSig",
      "outputs": [],
      "stateMutability": "nonpayable",
      "type": "function"
    },
    {
      "inputs": [
        {
          "internalType": "address",
          "name": "newGovernance",
          "type": "address"
        }
      ],
      "name": "setGovernance",
      "outputs": [],
      "stateMutability": "nonpayable",
      "type": "function"
    },
    {
      "inputs": [
        {
          "internalType": "uint256",
          "name": "profileId",
          "type": "uint256"
        },
        {
          "internalType": "string",
          "name": "imageURI",
          "type": "string"
        }
      ],
      "name": "setProfileImageURI",
      "outputs": [],
      "stateMutability": "nonpayable",
      "type": "function"
    },
    {
      "inputs": [
        {
          "components": [
            {
              "internalType": "uint256",
              "name": "profileId",
              "type": "uint256"
            },
            {
              "internalType": "string",
              "name": "imageURI",
              "type": "string"
            },
            {
              "components": [
                {
                  "internalType": "uint8",
                  "name": "v",
                  "type": "uint8"
                },
                {
                  "internalType": "bytes32",
                  "name": "r",
                  "type": "bytes32"
                },
                {
                  "internalType": "bytes32",
                  "name": "s",
                  "type": "bytes32"
                },
                {
                  "internalType": "uint256",
                  "name": "deadline",
                  "type": "uint256"
                }
              ],
              "internalType": "struct DataTypes.EIP712Signature",
              "name": "sig",
              "type": "tuple"
            }
          ],
          "internalType": "struct DataTypes.SetProfileImageURIWithSigData",
          "name": "vars",
          "type": "tuple"
        }
      ],
      "name": "setProfileImageURIWithSig",
      "outputs": [],
      "stateMutability": "nonpayable",
      "type": "function"
    },
    {
      "inputs": [
        {
          "internalType": "enum DataTypes.ProtocolState",
          "name": "newState",
          "type": "uint8"
        }
      ],
      "name": "setState",
      "outputs": [],
      "stateMutability": "nonpayable",
      "type": "function"
    },
    {
      "inputs": [
        {
          "internalType": "address",
          "name": "",
          "type": "address"
        }
      ],
      "name": "sigNonces",
      "outputs": [
        {
          "internalType": "uint256",
          "name": "",
          "type": "uint256"
        }
      ],
      "stateMutability": "view",
      "type": "function"
    },
    {
      "inputs": [
        {
          "internalType": "bytes4",
          "name": "interfaceId",
          "type": "bytes4"
        }
      ],
      "name": "supportsInterface",
      "outputs": [
        {
          "internalType": "bool",
          "name": "",
          "type": "bool"
        }
      ],
      "stateMutability": "view",
      "type": "function"
    },
    {
      "inputs": [],
      "name": "symbol",
      "outputs": [
        {
          "internalType": "string",
          "name": "",
          "type": "string"
        }
      ],
      "stateMutability": "view",
      "type": "function"
    },
    {
      "inputs": [
        {
          "internalType": "uint256",
          "name": "index",
          "type": "uint256"
        }
      ],
      "name": "tokenByIndex",
      "outputs": [
        {
          "internalType": "uint256",
          "name": "",
          "type": "uint256"
        }
      ],
      "stateMutability": "view",
      "type": "function"
    },
    {
      "inputs": [
        {
          "internalType": "uint256",
          "name": "tokenId",
          "type": "uint256"
        }
      ],
      "name": "tokenDataOf",
      "outputs": [
        {
          "components": [
            {
              "internalType": "address",
              "name": "owner",
              "type": "address"
            },
            {
              "internalType": "uint96",
              "name": "mintTimestamp",
              "type": "uint96"
            }
          ],
          "internalType": "struct IERC721Time.TokenData",
          "name": "",
          "type": "tuple"
        }
      ],
      "stateMutability": "view",
      "type": "function"
    },
    {
      "inputs": [
        {
          "internalType": "address",
          "name": "owner",
          "type": "address"
        },
        {
          "internalType": "uint256",
          "name": "index",
          "type": "uint256"
        }
      ],
      "name": "tokenOfOwnerByIndex",
      "outputs": [
        {
          "internalType": "uint256",
          "name": "",
          "type": "uint256"
        }
      ],
      "stateMutability": "view",
      "type": "function"
    },
    {
      "inputs": [
        {
          "internalType": "uint256",
          "name": "tokenId",
          "type": "uint256"
        }
      ],
      "name": "tokenURI",
      "outputs": [
        {
          "internalType": "string",
          "name": "",
          "type": "string"
        }
      ],
      "stateMutability": "view",
      "type": "function"
    },
    {
      "inputs": [],
      "name": "totalSupply",
      "outputs": [
        {
          "internalType": "uint256",
          "name": "",
          "type": "uint256"
        }
      ],
      "stateMutability": "view",
      "type": "function"
    },
    {
      "inputs": [
        {
          "internalType": "address",
          "name": "from",
          "type": "address"
        },
        {
          "internalType": "address",
          "name": "to",
          "type": "address"
        },
        {
          "internalType": "uint256",
          "name": "tokenId",
          "type": "uint256"
        }
      ],
      "name": "transferFrom",
      "outputs": [],
      "stateMutability": "nonpayable",
      "type": "function"
    },
    {
      "inputs": [
        {
          "internalType": "address",
          "name": "collectModule",
          "type": "address"
        },
        {
          "internalType": "bool",
          "name": "whitelist",
          "type": "bool"
        }
      ],
      "name": "whitelistCollectModule",
      "outputs": [],
      "stateMutability": "nonpayable",
      "type": "function"
    },
    {
      "inputs": [
        {
          "internalType": "address",
          "name": "followModule",
          "type": "address"
        },
        {
          "internalType": "bool",
          "name": "whitelist",
          "type": "bool"
        }
      ],
      "name": "whitelistFollowModule",
      "outputs": [],
      "stateMutability": "nonpayable",
      "type": "function"
    },
    {
      "inputs": [
        {
          "internalType": "address",
          "name": "profileCreator",
          "type": "address"
        },
        {
          "internalType": "bool",
          "name": "whitelist",
          "type": "bool"
        }
      ],
      "name": "whitelistProfileCreator",
      "outputs": [],
      "stateMutability": "nonpayable",
      "type": "function"
    },
    {
      "inputs": [
        {
          "internalType": "address",
          "name": "referenceModule",
          "type": "address"
        },
        {
          "internalType": "bool",
          "name": "whitelist",
          "type": "bool"
        }
      ],
      "name": "whitelistReferenceModule",
      "outputs": [],
      "stateMutability": "nonpayable",
      "type": "function"
    }
  ],
  "bytecode": "0x60e06040526000600b553480156200001657600080fd5b50604051620060c2380380620060c28339810160408190526200003991620000c2565b306080526001600160a01b03821662000065576040516348be0eb360e01b815260040160405180910390fd5b6001600160a01b0381166200008d576040516348be0eb360e01b815260040160405180910390fd5b6001600160a01b0391821660a0521660c052620000fa565b80516001600160a01b0381168114620000bd57600080fd5b919050565b60008060408385031215620000d657600080fd5b620000e183620000a5565b9150620000f160208401620000a5565b90509250929050565b60805160a05160c051615f8a620001386000396000818161084001528181611fc601526127d60152600061063101526000610d8f0152615f8a6000f3fe608060405234801561001057600080fd5b506004361061048b5760003560e01c80637ef67f9911610262578063b88d4fde11610151578063dc217253116100ce578063ed24911d11610092578063ed24911d14610c2c578063f08f4f6414610c34578063f1b2f8bc14610c54578063f990ccd714610c67578063fb78ae6c14610c87578063ffea138e14610c9a57600080fd5b8063dc21725314610ba4578063dd69cdb114610bb7578063df457c3414610bca578063e985e9c514610bdd578063ec81d19414610c1957600080fd5b8063c0da9bcd11610115578063c0da9bcd14610af2578063c6b5d06c14610b32578063c736c99014610b45578063c87b56dd14610b65578063d923d20c14610b7857600080fd5b8063b88d4fde14610a93578063bd12d3f014610aa6578063bdfdd4bc14610ab9578063bfbf0b4b14610acc578063bfd24f4714610adf57600080fd5b8063a22cb465116101df578063af05dd22116101a3578063af05dd22146109f7578063b48951e414610a23578063b5a3149614610a36578063b6f32d2b14610a49578063b7984c0514610a5c57600080fd5b8063a22cb46514610966578063a6d8e1e414610979578063a9ec65631461098c578063ab033ea9146109b8578063ad3e72bf146109cb57600080fd5b80638e4fd6a9116102265780638e4fd6a9146108ef57806392254a621461090f57806395d89b4114610938578063963ff141146109405780639b84a14c1461095357600080fd5b80637ef67f991461087757806384114ad41461088a57806386e2947b1461089d57806389028a13146108b05780638e204fb4146108c357600080fd5b8063374c94731161037e57806352aaef55116102fb5780636352211e116102bf5780636352211e146108055780636dea40b31461081857806370a082311461082b57806377349a5f1461083e5780637a3757161461086457600080fd5b806352aaef5514610733578063540528b91461076a57806356de96db1461079357806357ff49f6146107a65780635ca3eebf146107dd57600080fd5b806342842e0e1161034257806342842e0e146106d457806342966c68146106e75780634f558e79146106fa5780634f6ccce71461070d57806350ddf35c1461072057600080fd5b8063374c9473146106685780633a15ff071461067b5780633b28b89f1461069b5780633b508132146106ae5780634187e4c5146106c157600080fd5b8063209055061161040c5780632faeed81116103d05780632faeed81146105e957806331dcebe3146105fc57806331fff07c1461060f5780633502ac4b1461062f57806335da33941461065557600080fd5b8063209055061461058c57806320fa728a1461059f57806323b872dd146105b2578063289b3c0d146105c55780632f745c59146105d657600080fd5b8063081812fc11610453578063081812fc14610507578063095ea7b31461053257806318160ddd146105455780631865c57d1461054d5780631cbb26201461056057600080fd5b806301ffc9a7146104905780630252c9a2146104b8578063054871b8146104ca57806306fdde03146104df578063077f224a146104f4575b600080fd5b6104a361049e366004614917565b610cad565b60405190151581526020015b60405180910390f35b6016545b6040519081526020016104af565b6104dd6104d8366004614975565b610cd8565b005b6104e7610cf9565b6040516104af9190614a18565b6104dd610502366004614a42565b610d8b565b61051a610515366004614ac2565b610e25565b6040516001600160a01b0390911681526020016104af565b6104dd610540366004614adb565b610ebf565b6008546104bc565b600c5460ff166040516104af9190614b1b565b6104a361056e366004614b35565b6001600160a01b03166000908152600e602052604090205460ff1690565b6104dd61059a366004614b60565b610fd0565b6104bc6105ad366004614b93565b61103b565b6104dd6105c0366004614bd4565b61106d565b6017546001600160a01b031661051a565b6104bc6105e4366004614adb565b61109e565b6104bc6105f7366004614c28565b611134565b6104dd61060a366004614b60565b61115e565b61062261061d366004614c5c565b6111c1565b6040516104af9190614c7e565b7f000000000000000000000000000000000000000000000000000000000000000061051a565b6104dd610663366004614b35565b61124a565b6104e7610676366004614ac2565b6112b7565b6104bc610689366004614ac2565b60009081526013602052604090205490565b6104dd6106a9366004614ca4565b61135c565b6104bc6106bc366004614ceb565b6114f8565b6104dd6106cf366004614b60565b611740565b6104dd6106e2366004614bd4565b6117a3565b6104dd6106f5366004614ac2565b6117be565b6104a3610708366004614ac2565b6117db565b6104bc61071b366004614ac2565b6117fa565b6104bc61072e366004614ac2565b61188d565b61051a610741366004614c5c565b60009182526014602090815260408084209284529190529020600501546001600160a01b031690565b61051a610778366004614ac2565b6000908152601160205260409020546001600160a01b031690565b6104dd6107a1366004614d1f565b611923565b61051a6107b4366004614c5c565b60009182526014602090815260408084209284529190529020600401546001600160a01b031690565b6107f06107eb366004614c5c565b6119aa565b604080519283526020830191909152016104af565b61051a610813366004614ac2565b6119d3565b6104dd610826366004614d40565b611a4a565b6104bc610839366004614b35565b611ae1565b7f000000000000000000000000000000000000000000000000000000000000000061051a565b6104bc610872366004614d99565b611b68565b6104dd610885366004614de6565b611eb4565b6104bc610898366004614e23565b611f83565b6104dd6108ab366004614e5d565b612040565b6104dd6108be366004614ea1565b6120de565b6104a36108d1366004614b35565b6001600160a01b031660009081526010602052604090205460ff1690565b6109026108fd366004614ca4565b6121a3565b6040516104af9190614ef6565b6104bc61091d366004614b35565b6001600160a01b031660009081526015602052604090205490565b6104e7612429565b6104bc61094e366004614c28565b612438565b6104dd610961366004614c28565b612502565b6104dd610974366004614b60565b6125de565b6104dd610987366004614b60565b612642565b61051a61099a366004614ac2565b6000908152601360205260409020600201546001600160a01b031690565b6104dd6109c6366004614b35565b6126a5565b6104a36109d9366004614b35565b6001600160a01b03166000908152600f602052604090205460ff1690565b6104a3610a05366004614b35565b6001600160a01b03166000908152600d602052604090205460ff1690565b6104bc610a31366004614f3a565b6126b6565b6104e7610a44366004614c5c565b61285d565b6104bc610a57366004614f75565b612925565b61051a610a6a366004614c5c565b60009182526014602090815260408084209284529190529020600301546001600160a01b031690565b6104dd610aa13660046150be565b61294a565b6104dd610ab4366004614c28565b61297c565b6104dd610ac7366004615125565b6129df565b6104dd610ada366004615160565b612a6e565b6104dd610aed36600461517c565b612b2d565b610b05610b00366004614ac2565b612b48565b6040805182516001600160a01b031681526020928301516001600160601b031692810192909252016104af565b6104dd610b40366004614975565b612c16565b610b58610b53366004614c5c565b612c32565b6040516104af919061519f565b6104e7610b73366004614ac2565b612d91565b61051a610b86366004614ac2565b6000908152601360205260409020600101546001600160a01b031690565b6104dd610bb2366004615160565b612ec3565b6104dd610bc5366004615209565b612fa6565b6104bc610bd8366004614ceb565b612fc1565b6104a3610beb36600461522d565b6001600160a01b03918216600090815260056020908152604080832093909416825291909152205460ff1690565b6104e7610c27366004614ac2565b6131b8565b6104bc6131d8565b610c47610c42366004614ac2565b6131e7565b6040516104af9190615257565b6104dd610c62366004614ac2565b61343b565b6104bc610c75366004614b35565b600a6020526000908152604090205481565b610902610c95366004615328565b61344d565b6104bc610ca8366004614c28565b6134e1565b60006001600160e01b0319821663780e9d6360e01b1480610cd25750610cd2826135b5565b92915050565b610ce0613605565b610ce98361363f565b610cf483838361369e565b505050565b606060008054610d0890615387565b80601f0160208091040260200160405190810160405280929190818152602001828054610d3490615387565b8015610d815780601f10610d5657610100808354040283529160200191610d81565b820191906000526020600020905b815481529060010190602001808311610d6457829003601f168201915b5050505050905090565b60017f00000000000000000000000000000000000000000000000000000000000000006001600160a01b0316301415610dd7576040516325c7410560e21b815260040160405180910390fd5b600b548111610df9576040516302ed543d60e51b815260040160405180910390fd5b600b819055610e0a8686868661371f565b610e146002613770565b610e1d826137ee565b505050505050565b6000818152600260205260408120546001600160a01b0316610ea35760405162461bcd60e51b815260206004820152602c60248201527f4552433732313a20617070726f76656420717565727920666f72206e6f6e657860448201526b34b9ba32b73a103a37b5b2b760a11b60648201526084015b60405180910390fd5b506000908152600460205260409020546001600160a01b031690565b6000610eca826119d3565b9050806001600160a01b0316836001600160a01b03161415610f385760405162461bcd60e51b815260206004820152602160248201527f4552433732313a20617070726f76616c20746f2063757272656e74206f776e656044820152603960f91b6064820152608401610e9a565b336001600160a01b0382161480610f545750610f548133610beb565b610fc65760405162461bcd60e51b815260206004820152603860248201527f4552433732313a20617070726f76652063616c6c6572206973206e6f74206f7760448201527f6e6572206e6f7220617070726f76656420666f7220616c6c00000000000000006064820152608401610e9a565b610cf48383613847565b610fd86138b5565b6001600160a01b0382166000818152600d6020908152604091829020805460ff191685151590811790915591514281529192917f8f617843889b94892bd44852d36ca6a7f49ecf4350a01e7b68e22d80f4ed95bc91015b60405180910390a35050565b600080838360405161104e9291906153bc565b6040805191829003909120600090815260126020522054949350505050565b61107733826138e0565b6110935760405162461bcd60e51b8152600401610e9a906153cc565b610cf48383836139d3565b60006110a983611ae1565b821061110b5760405162461bcd60e51b815260206004820152602b60248201527f455243373231456e756d657261626c653a206f776e657220696e646578206f7560448201526a74206f6620626f756e647360a81b6064820152608401610e9a565b506001600160a01b03919091166000908152600660209081526040808320938352929052205490565b600061113e613b7e565b611148823561363f565b610cd26111548361541d565b613bb5565b919050565b6111666138b5565b6001600160a01b0382166000818152600f6020908152604091829020805460ff191685151590811790915591514281529192917f6cc19a794d6a439023150cd58748eed4353190c0bb060d2e6250e2df4a68b673910161102f565b60008115806111dd575060008381526013602052604090205482115b156111ea57506003610cd2565b60008381526014602090815260408083208584529091529020600401546001600160a01b031661121c57506002610cd2565b600083815260146020908152604080832085845290915290205461124257506000610cd2565b506001610cd2565b6112526138b5565b601880546001600160a01b038381166001600160a01b03198316811790935560405191169190829033907f676c0801b0f400762e958ee31cfbb10870e70786f6761f57c8647e766b0db3d9906112ab9042815260200190565b60405180910390a45050565b60008181526013602052604090206005018054606091906112d790615387565b80601f016020809104026020016040519081016040528092919081815260200182805461130390615387565b80156113505780601f1061132557610100808354040283529160200191611350565b820191906000526020600020905b81548152906001019060200180831161133357829003601f168201915b50505050509050919050565b611364613605565b600061137082356119d3565b905061145a6114507f61332f0343256b019dca2e0ffc75766fde55292d645df285bb1a3b74a493b51084356113ab6040870160208801614b35565b6113b860408801886154b8565b6040516113c69291906153bc565b604080519182900382206001600160a01b0389166000908152600a6020908152929020805460018101909155611435969594939192909160c08c0135910195865260208601949094526001600160a01b039290921660408501526060840152608083015260a082015260c00190565b60405160208183030381529060405280519060200120613c0d565b8284606001613c57565b73__$1f7cbacb1f9f5d323b85b0487838426c8d$__636a7ecf1383356114866040860160208701614b35565b61149360408701876154b8565b87356000908152601360205260409081902090516001600160e01b031960e088901b1681526114cc959493929190600e90600401615527565b60006040518083038186803b1580156114e457600080fd5b505af4158015610e1d573d6000803e3d6000fd5b6000611502613b7e565b600061150e83356119d3565b905061164961163f7ffb2be94758c5f2515e99eae2d54860ea468ce314ffb38e328c234793acbcccf4853561154660208801886154b8565b6040516115549291906153bc565b604051809103902087604001602081019061156f9190614b35565b61157c60608a018a6154b8565b60405161158a9291906153bc565b6040519081900390206115a360a08b0160808c01614b35565b6115b060a08c018c6154b8565b6040516115be9291906153bc565b604080519182900382206001600160a01b03808d166000908152600a6020908152908490208054600181019091559085019a909a52918301979097526060820195909552928416608084015260a083019190915290911660c082015260e0810191909152610100810191909152610120808701359082015261014001611435565b828560c001613c57565b611739833561165b60208601866154b8565b8080601f0160208091040260200160405190810160405280939291908181526020018383808284376000920191909152506116a0925050506060870160408801614b35565b6116ad60608801886154b8565b8080601f0160208091040260200160405190810160405280939291908181526020018383808284376000920191909152506116f29250505060a0890160808a01614b35565b6116ff60a08a018a6154b8565b8080601f016020809104026020016040519081016040528093929190818152602001838380828437600092019190915250613d3592505050565b9392505050565b6117486138b5565b6001600160a01b038216600081815260106020908152604091829020805460ff191685151590811790915591514281529192917f37872a053ef20cb52defb7c9ec20e1a87cb8dd5098ac9e76a144be263dfef572910161102f565b610cf48383836040518060200160405280600081525061294a565b6117c6613605565b6117cf81613dd4565b6117d881613e04565b50565b6000818152600260205260408120546001600160a01b03161515610cd2565b600061180560085490565b82106118685760405162461bcd60e51b815260206004820152602c60248201527f455243373231456e756d657261626c653a20676c6f62616c20696e646578206f60448201526b7574206f6620626f756e647360a01b6064820152608401610e9a565b6008828154811061187b5761187b615567565b90600052602060002001549050919050565b600081815260026020526040812054600160a01b90046001600160601b0316806119145760405162461bcd60e51b815260206004820152603260248201527f4552433732313a206d696e742074696d657374616d7020717565727920666f72604482015271103737b732bc34b9ba32b73a103a37b5b2b760711b6064820152608401610e9a565b6001600160601b031692915050565b6018546001600160a01b031633141561197657600081600281111561194a5761194a614b05565b141561196957604051630357a1ab60e31b815260040160405180910390fd5b611971613605565b6119a1565b6017546001600160a01b031633146119a157604051635010559960e11b815260040160405180910390fd5b6117d881613770565b6000828152601460209081526040808320848452909152902080546001909101545b9250929050565b6000818152600260205260408120546001600160a01b031680610cd25760405162461bcd60e51b815260206004820152602960248201527f4552433732313a206f776e657220717565727920666f72206e6f6e657869737460448201526832b73a103a37b5b2b760b91b6064820152608401610e9a565b611a52613605565b611a5b84613e3f565b600084815260136020526040908190209051636a7ecf1360e01b815273__$1f7cbacb1f9f5d323b85b0487838426c8d$__91636a7ecf1391611aab91889188918891889190600e90600401615527565b60006040518083038186803b158015611ac357600080fd5b505af4158015611ad7573d6000803e3d6000fd5b5050505050505050565b60006001600160a01b038216611b4c5760405162461bcd60e51b815260206004820152602a60248201527f4552433732313a2062616c616e636520717565727920666f7220746865207a65604482015269726f206164647265737360b01b6064820152608401610e9a565b506001600160a01b031660009081526003602052604090205490565b6000611b72613b7e565b6000611b7e83356119d3565b9050611d27611d1c7f35b861ea91c543d61c3f094b5effa29dfcd22a439290ae248fdccbc7162016918535611bb660208801886154b8565b604051611bc49291906153bc565b604051809103902087604001358860600135898060800190611be691906154b8565b604051611bf49291906153bc565b604051908190039020611c0d60c08c0160a08d01614b35565b611c1a60c08d018d6154b8565b604051611c289291906153bc565b604051908190039020611c426101008e0160e08f01614b35565b611c506101008f018f6154b8565b604051611c5e9291906153bc565b6040518091039020600a60008e6001600160a01b03166001600160a01b031681526020019081526020016000206000815480929190600101919050558f61012001606001356040516020016114359c9b9a999897969594939291909b8c5260208c019a909a5260408b019890985260608a0196909652608089019490945260a08801929092526001600160a01b0390811660c088015260e0870191909152166101008501526101208401526101408301526101608201526101800190565b828561012001613c57565b61173960405180610120016040528085600001358152602001858060200190611d5091906154b8565b8080601f01602080910402602001604051908101604052809392919081815260200183838082843760009201919091525050509082525060408087013560208301526060808801359183019190915201611dad60808701876154b8565b8080601f016020809104026020016040519081016040528093929190818152602001838380828437600092019190915250505090825250602001611df760c0870160a08801614b35565b6001600160a01b03168152602001611e1260c08701876154b8565b8080601f016020809104026020016040519081016040528093929190818152602001838380828437600092019190915250505090825250602001611e5d610100870160e08801614b35565b6001600160a01b03168152602001611e796101008701876154b8565b8080601f0160208091040260200160405190810160405280939291908181526020018383808284376000920191909152505050915250613e79565b6001600160a01b038316611edb576040516307eb16dd60e21b815260040160405180910390fd5b6000611ee6836119d3565b6001600160a01b038181166000908152600a602090815260409182902080546001810190915582517f49ecf333e5b8c95c40fdafc95c1ad136e8914a8fb55e9dc8bb01eaa83a2df9ad9281019290925292881691810191909152606080820187905260808201929092529084013560a0820152909150611f7390611f6c9060c001611435565b8284613c57565b611f7d8484613847565b50505050565b6000611f8d613605565b60405163334ce6f160e21b815273__$1e68a60ae0444699fe08192a29ecc09930$__9063cd339bc490611ff490339089908990899089907f00000000000000000000000000000000000000000000000000000000000000009060149060139060040161557d565b602060405180830381865af4158015612011573d6000803e3d6000fd5b505050506040513d601f19601f8201168201806040525081019061203591906155cb565b90505b949350505050565b60008581526014602090815260408083208784529091529020600501546001600160a01b03163381146120865760405163c6d1651b60e01b815260040160405180910390fd5b604080516001600160a01b03858116825284166020820152428183015290518591879189917f68edb7ec2c37d21b3b72233960b487f2966f4ac82b7430d39f24d1f8d6f99106919081900360600190a4505050505050565b6001600160a01b038316612105576040516307eb16dd60e21b815260040160405180910390fd5b6001600160a01b038481166000818152600a602090815260409182902080546001810190915582517f47ab88482c90e4bb94b82a947ae78fa91fb25de1469ab491f4c15b9a0a2677ee9281019290925291810192909252918516606080830191909152841515608083015260a08201929092529082013560c0820152612198906121919060e001611435565b8583613c57565b611f7d848484613ed8565b60606121ad613605565b60006121bc60408401846155e4565b905090506000816001600160401b038111156121da576121da614fb0565b604051908082528060200260200182016040528015612203578160200160208202803683370190505b50905060005b8281101561227b5761221e60408601866155e4565b8281811061222e5761222e615567565b905060200281019061224091906154b8565b60405161224e9291906153bc565b604051809103902082828151811061226857612268615567565b6020908102919091010152600101612209565b5061237d6123677ffb6b7f1cd1b38daf3822aff0abbe78124db5d62a4748bcff007c15ccd6d30bc56122b060208801886155e4565b6040516020016122c192919061562d565b60405160208183030381529060405280519060200120846040516020016122e89190615659565b60405160208183030381529060405280519060200120600a60008a60000160208101906123159190614b35565b6001600160a01b0316815260208082019290925260409081016000208054600181019091558151928301959095528101929092526060820152608081019190915260c08781013560a083015201611435565b6123746020870187614b35565b86606001613c57565b73__$1e68a60ae0444699fe08192a29ecc09930$__636fb4b4636123a46020870187614b35565b6123b160208801886155e4565b6123be60408a018a6155e4565b601360126040518863ffffffff1660e01b81526004016123e497969594939291906156d4565b600060405180830381865af4158015612401573d6000803e3d6000fd5b505050506040513d6000823e601f3d908101601f19168201604052612038919081019061578e565b606060018054610d0890615387565b6000612442613b7e565b61244c823561363f565b610cd2823561245e60208501856154b8565b8080601f0160208091040260200160405190810160405280939291908181526020018383808284376000920191909152506124a3925050506060860160408701614b35565b6124b060608701876154b8565b8080601f0160208091040260200160405190810160405280939291908181526020018383808284376000920191909152506124f59250505060a0880160808901614b35565b6116ff60a08901896154b8565b61250a613605565b600061251682356119d3565b90506125c36125b97f5b9860bd835e648945b22d053515bc1f53b7d9fab4b23b1b49db15722e945d14843561254e60208701876154b8565b60405161255c9291906153bc565b604080519182900382206001600160a01b0388166000908152600a60209081529083902080546001810190915590840195909552908201929092526060810191909152608081019190915260a0858101359082015260c001611435565b8284604001613c57565b6125da82356125d560208501856154b8565b61369e565b5050565b6001600160a01b0382163314156126375760405162461bcd60e51b815260206004820152601960248201527f4552433732313a20617070726f766520746f2063616c6c6572000000000000006044820152606401610e9a565b6125da338383613ed8565b61264a6138b5565b6001600160a01b0382166000818152600e6020908152604091829020805460ff191685151590811790915591514281529192917f52c5b7889df9f12f84ec3da051e854e5876678370d8357959c23ef59dd6486df910161102f565b6126ad6138b5565b6117d8816137ee565b60006126c0613605565b6127966127807f7f9b4ea1fc678b4fda1611ac5cbd28f339e235d89b1540635e9b2e0223a3c101602085013560408601356126fe60608801886154b8565b60405161270c9291906153bc565b604051908190039020600a600061272660208b018b614b35565b6001600160a01b0316815260208082019290925260409081016000208054600181019091558151928301969096528101939093526060830191909152608082015260a081019190915260e08581013560c083015201611435565b61278d6020850185614b35565b84608001613c57565b73__$1e68a60ae0444699fe08192a29ecc09930$__63cd339bc46127bd6020850185614b35565b602085013560408601356127d460608801886154b8565b7f0000000000000000000000000000000000000000000000000000000000000000601460136040518963ffffffff1660e01b815260040161281c98979695949392919061557d565b602060405180830381865af4158015612839573d6000803e3d6000fd5b505050506040513d601f19601f82011682018060405250810190610cd291906155cb565b606060008061286e85856014613f45565b506000828152601460209081526040808320848452909152902060020180549294509092509061289d90615387565b80601f01602080910402602001604051908101604052809291908181526020018280546128c990615387565b80156129165780601f106128eb57610100808354040283529160200191612916565b820191906000526020600020905b8154815290600101906020018083116128f957829003601f168201915b50505050509250505092915050565b600061292f613b7e565b612939823561363f565b610cd261294583615833565b613e79565b61295433836138e0565b6129705760405162461bcd60e51b8152600401610e9a906153cc565b611f7d84848484614007565b612984613605565b600061299082356119d3565b90506129c86125b97fd8d76e8b2b26e1ebe72def13fb559a68561ef064055b0de01f955bc26e25d42f843561254e60208701876154b8565b6125da82356129da60208501856154b8565b61403a565b6000848152601360205260409020600201546001600160a01b0316338114612a1a5760405163646785d560e11b815260040160405180910390fd5b604080516001600160a01b0385811682528416602082015242818301529051859187917f4996ad2257e7db44908136c43128cc10ca988096f67dc6bb0bcee11d151368fb9181900360600190a35050505050565b612a76613605565b6000612a8282356119d3565b9050612b136125b97f77ba3e9f5fa75343bbad1241fb539a0064de97694b47d463d1eb5c54aba11f0f8435612abd6040870160208801614b35565b6001600160a01b038681166000908152600a602090815260409182902080546001810190915582519182019690965290810193909352166060820152608081019190915260a0858101359082015260c001611435565b6125da8235612b286040850160208601614b35565b61408b565b612b35613605565b612b3e82613e3f565b6125da828261408b565b60408051808201909152600080825260208201526000828152600260205260409020546001600160a01b0316612bd75760405162461bcd60e51b815260206004820152602e60248201527f4552433732313a20746f6b656e206461746120717565727920666f72206e6f6e60448201526d32bc34b9ba32b73a103a37b5b2b760911b6064820152608401610e9a565b506000908152600260209081526040918290208251808401909352546001600160a01b0381168352600160a01b90046001600160601b03169082015290565b612c1e613605565b612c278361363f565b610cf483838361403a565b612c866040518060c0016040528060008152602001600081526020016060815260200160006001600160a01b0316815260200160006001600160a01b0316815260200160006001600160a01b031681525090565b6014600084815260200190815260200160002060008381526020019081526020016000206040518060c00160405290816000820154815260200160018201548152602001600282018054612cd990615387565b80601f0160208091040260200160405190810160405280929190818152602001828054612d0590615387565b8015612d525780601f10612d2757610100808354040283529160200191612d52565b820191906000526020600020905b815481529060010190602001808311612d3557829003601f168201915b505050918352505060038201546001600160a01b0390811660208301526004830154811660408301526005909201549091166060909101529392505050565b6000818152601360205260409020600201546060906001600160a01b031673__$f906f20d797116ee89ed79945048c6ad36$__633edea73c848315612e3757836001600160a01b03166318160ddd6040518163ffffffff1660e01b8152600401602060405180830381865afa158015612e0e573d6000803e3d6000fd5b505050506040513d601f19601f82011682018060405250810190612e3291906155cb565b612e3a565b60005b612e43876119d3565b6000888152601360205260409081902090516001600160e01b031960e087901b168152612e7e949392916003810191600491820191016159a6565b600060405180830381865af4158015612e9b573d6000803e3d6000fd5b505050506040513d6000823e601f3d908101601f1916820160405261173991908101906159e5565b612ecb613605565b612f8c612f767e198a25e19615d82f53977db0fc1ee7f3701b0fdf1299a971cf997545879c04612efe6020850185614b35565b60208501803590600a90600090612f159089614b35565b6001600160a01b03168152602080820192909252604090810160002080546001810190915590516114359594939260a08a013591019485526001600160a01b0393909316602085015260408401919091526060830152608082015260a00190565b612f836020840184614b35565b83604001613c57565b6117d8612f9c6020830183614b35565b82602001356140e8565b612fae613605565b612fb88282614180565b6125da82613e04565b6000612fcb613b7e565b6000612fd783356119d3565b90506130dc61163f7f4178441487eb967c15821c9ffee94853812f263a69ccb6352bdaac59f77e486f85356020870135604088013561301960608a018a6154b8565b6040516130279291906153bc565b60405190819003902061304060a08b0160808c01614b35565b61304d60a08c018c6154b8565b60405161305b9291906153bc565b604080519182900382206001600160a01b03808d166000908152600a6020908152908490208054600181019091559085019a909a52918301979097526060820195909552608081019390935260a083019190915290911660c082015260e0810191909152610100810191909152610120808701359082015261014001611435565b6117396040518060c0016040528085600001358152602001856020013581526020018560400135815260200185806060019061311891906154b8565b8080601f01602080910402602001604051908101604052809392919081815260200183838082843760009201919091525050509082525060200161316260a0870160808801614b35565b6001600160a01b0316815260200161317d60a08701876154b8565b8080601f0160208091040260200160405190810160405280939291908181526020018383808284376000920191909152505050915250613bb5565b60008181526013602052604090206003018054606091906112d790615387565b60006131e261420e565b905090565b6132326040518060c001604052806000815260200160006001600160a01b0316815260200160006001600160a01b031681526020016060815260200160608152602001606081525090565b600082815260136020908152604091829020825160c0810184528154815260018201546001600160a01b039081169382019390935260028201549092169282019290925260038201805491929160608401919061328e90615387565b80601f01602080910402602001604051908101604052809291908181526020018280546132ba90615387565b80156133075780601f106132dc57610100808354040283529160200191613307565b820191906000526020600020905b8154815290600101906020018083116132ea57829003601f168201915b5050505050815260200160048201805461332090615387565b80601f016020809104026020016040519081016040528092919081815260200182805461334c90615387565b80156133995780601f1061336e57610100808354040283529160200191613399565b820191906000526020600020905b81548152906001019060200180831161337c57829003601f168201915b505050505081526020016005820180546133b290615387565b80601f01602080910402602001604051908101604052809291908181526020018280546133de90615387565b801561342b5780601f106134005761010080835404028352916020019161342b565b820191906000526020600020905b81548152906001019060200180831161340e57829003601f168201915b5050505050815250509050919050565b613443613605565b6117d833826140e8565b6060613457613605565b604051636fb4b46360e01b815273__$1e68a60ae0444699fe08192a29ecc09930$__90636fb4b4639061349c90339089908990899089906013906012906004016156d4565b600060405180830381865af41580156134b9573d6000803e3d6000fd5b505050506040513d6000823e601f3d908101601f19168201604052612035919081019061578e565b60006134eb613605565b336000908152600d602052604090205460ff1661351b5760405163561a858760e01b815260040160405180910390fd5b601680546001019081905561353c6135366020850185614b35565b826142a3565b604051633f67a66f60e11b815273__$1f7cbacb1f9f5d323b85b0487838426c8d$__90637ecf4cde9061357e9086908590601290601390600e90600401615a52565b60006040518083038186803b15801561359657600080fd5b505af41580156135aa573d6000803e3d6000fd5b509295945050505050565b60006001600160e01b031982166380ac58cd60e01b14806135e657506001600160e01b03198216635b5e139f60e01b145b80610cd257506301ffc9a760e01b6001600160e01b0319831614610cd2565b6002600c5460ff16600281111561361e5761361e614b05565b141561363d576040516313d0ff5960e31b815260040160405180910390fd5b565b613648816119d3565b6001600160a01b0316336001600160a01b0316148061367d57506000818152601160205260409020546001600160a01b031633145b156136855750565b60405163f33ac98f60e01b815260040160405180910390fd5b6117708111156136c15760405163781548c760e01b815260040160405180910390fd5b60008381526013602052604090206136dd906004018383614868565b50827fd5a5879cad33c830cc1432c1850107029a09c80c60e9bce1ecd08d24880bd46c83834260405161371293929190615b49565b60405180910390a2505050565b61372b848484846143f4565b7f414cd0b34676984f09a5f76ce9718d4062e50283abe0e7e274a9a5b4e0c99c308484848442604051613762959493929190615b6d565b60405180910390a150505050565b600c805460ff811691839160ff1916600183600281111561379357613793614b05565b02179055508160028111156137aa576137aa614b05565b8160028111156137bc576137bc614b05565b60405142815233907fa2f9a1499fc1f9b7796d21fe5761290ccb7e0ef6ccf35fa58b668f304a62a1ca906020016112ab565b601780546001600160a01b038381166001600160a01b03198316811790935560405191169190829033907fe552a55455b740845a5c07ed445d1724142fc997b389835495a29b30cddc1ccd906112ab9042815260200190565b600081815260046020526040902080546001600160a01b0319166001600160a01b038416908117909155819061387c826119d3565b6001600160a01b03167f8c5be1e5ebec7d5bd14f71427d1e84f3dd0314c0f7b2291e5b200ac8c7c3b92560405160405180910390a45050565b6017546001600160a01b0316331461363d57604051632d5be4cb60e21b815260040160405180910390fd5b6000818152600260205260408120546001600160a01b03166139595760405162461bcd60e51b815260206004820152602c60248201527f4552433732313a206f70657261746f7220717565727920666f72206e6f6e657860448201526b34b9ba32b73a103a37b5b2b760a11b6064820152608401610e9a565b6000613964836119d3565b9050806001600160a01b0316846001600160a01b0316148061399f5750836001600160a01b031661399484610e25565b6001600160a01b0316145b8061203857506001600160a01b0380821660009081526005602090815260408083209388168352929052205460ff16612038565b826001600160a01b03166139e6826119d3565b6001600160a01b031614613a4e5760405162461bcd60e51b815260206004820152602960248201527f4552433732313a207472616e73666572206f6620746f6b656e2074686174206960448201526839903737ba1037bbb760b91b6064820152608401610e9a565b6001600160a01b038216613ab05760405162461bcd60e51b8152602060048201526024808201527f4552433732313a207472616e7366657220746f20746865207a65726f206164646044820152637265737360e01b6064820152608401610e9a565b613abb838383614414565b613ac6600082613847565b6001600160a01b0383166000908152600360205260408120805460019290613aef908490615bbd565b90915550506001600160a01b0382166000908152600360205260408120805460019290613b1d908490615bd4565b909155505060008181526002602052604080822080546001600160a01b0319166001600160a01b0386811691821790925591518493918716917fddf252ad1be2c89b69c2b068fc378daa952ba7f163c4a11628f55a4df523b3ef91a4505050565b6000600c5460ff166002811115613b9757613b97614b05565b1461363d57604051630f392a3b60e31b815260040160405180910390fd5b8051600090815260136020526040808220805460010190819055905163764e3e9360e01b815273__$1f7cbacb1f9f5d323b85b0487838426c8d$__9063764e3e939061357e9086908590601490601090600401615bec565b600080613c1861420e565b60405161190160f01b602082015260228101919091526042810184905260620160408051601f1981840301815291905280516020909101209392505050565b4281606001351015613c7c57604051630819bdcd60e01b815260040160405180910390fd5b6000600184613c8e6020850185615c78565b604080516000815260208181018084529490945260ff9092168282015291850135606082015290840135608082015260a0016020604051602081039080840390855afa158015613ce2573d6000803e3d6000fd5b5050604051601f1901519150506001600160a01b0381161580613d175750826001600160a01b0316816001600160a01b031614155b15611f7d576040516337e8456b60e01b815260040160405180910390fd5b60008681526013602052604080822080546001019081905590516309dbf05160e41b815273__$1f7cbacb1f9f5d323b85b0487838426c8d$__90639dbf051090613d98908b908b908b908b908b908b908a90601490600f90601090600401615c9b565b60006040518083038186803b158015613db057600080fd5b505af4158015613dc4573d6000803e3d6000fd5b50929a9950505050505050505050565b613dde33826138e0565b613dfb57604051636d8a29e760e11b815260040160405180910390fd5b6117d881614489565b6000818152601360205260408082209051613e229160030190615d22565b604080519182900390912060009081526012602052908120555050565b613e48816119d3565b6001600160a01b0316336001600160a01b0316146117d85760405163f194fae560e01b815260040160405180910390fd5b80516000908152601360208190526040808320805460010190819055905163731d549f60e11b8152909173__$1f7cbacb1f9f5d323b85b0487838426c8d$__9163e63aa93e9161357e9187918691601490600f90601090600401615d90565b6001600160a01b03838116600081815260056020908152604080832094871680845294825291829020805460ff191686151590811790915591519182527f17307eab39ab6107e8899845ad3d59bd9653f200f220920489ca2b5937696c31910160405180910390a3505050565b600083815260208281526040808320858452909152812060040154819081906001600160a01b03168015613f80578693508592509050613ffe565b60008781526020868152604080832089845290915290205480613fb65760405163a43d2a7160e01b815260040160405180910390fd5b6000888152602087815260408083208a84528252808320600101548484528983528184208185529092529091206004015491955093506001600160a01b03169150613ffe9050565b93509350939050565b6140128484846139d3565b61401e84848484614525565b611f7d5760405162461bcd60e51b8152600401610e9a90615e92565b6000838152601360205260409020614056906005018383614868565b50827fe82886e1af6fcab5caef13815b22f51384e970c367a785f265d13860a7d6966d83834260405161371293929190615b49565b60008281526011602090815260409182902080546001600160a01b0319166001600160a01b038516908117909155915142815284917f22baaec4952f35f59e45bd2ddb287e1ccc6d319375770c09428eb8f8d604e065910161102f565b60008111801561411257506140fc816119d3565b6001600160a01b0316826001600160a01b031614155b156141305760405163f194fae560e01b815260040160405180910390fd5b6001600160a01b03821660008181526015602052604090819020839055518291907f0afd7c479e8bc7dcdb856b3cc27d2332dfe1f018fde574ea124919ddcae8a9339061102f9042815260200190565b600061418b836119d3565b6001600160a01b0381166000908152600a602090815260409182902080546001810190915582517f108ccda6d7331b00561a3eea66a2ae331622356585681c62731e4a01aae2261a9281019290925291810186905260608082019290925290840135608082015290915061420590611f6c9060a001611435565b610cf483614489565b60007f8b73c3c69bb8fe3d512ecc4cf759cc79239f7b179b0ffacaa9a75d522b39400f614239610cf9565b80516020918201206040805192830193909352918101919091527fc89efdaa54c0f20c7adf612882df0950f5a951637e0307cdcb4c672f298b8bc660608201524660808201523060a082015260c00160405160208183030381529060405280519060200120905090565b6001600160a01b0382166142f95760405162461bcd60e51b815260206004820181905260248201527f4552433732313a206d696e7420746f20746865207a65726f20616464726573736044820152606401610e9a565b6000818152600260205260409020546001600160a01b03161561435e5760405162461bcd60e51b815260206004820152601c60248201527f4552433732313a20746f6b656e20616c7265616479206d696e746564000000006044820152606401610e9a565b61436a60008383614414565b6001600160a01b0382166000908152600360205260408120805460019290614393908490615bd4565b90915550506000818152600260205260408082206001600160a01b038516600160a01b426001600160601b031602811790915590518392907fddf252ad1be2c89b69c2b068fc378daa952ba7f163c4a11628f55a4df523b3ef908290a45050565b61440060008585614868565b5061440d60018383614868565b5050505050565b61441c613605565b6000818152601160205260409020546001600160a01b0316156144445761444481600061408b565b6001600160a01b03831660009081526015602052604090205481141561447e576001600160a01b0383166000908152601560205260408120555b610cf4838383614620565b6000614494826119d3565b90506144a281600084614414565b6144ad600083613847565b6001600160a01b03811660009081526003602052604081208054600192906144d6908490615bbd565b9091555050600082815260026020526040808220829055518391906001600160a01b038416907fddf252ad1be2c89b69c2b068fc378daa952ba7f163c4a11628f55a4df523b3ef908390a45050565b60006001600160a01b0384163b1561461857604051630a85bd0160e11b81526001600160a01b0385169063150b7a0290614569903390899088908890600401615ee4565b6020604051808303816000875af19250505080156145a4575060408051601f3d908101601f191682019092526145a191810190615f21565b60015b6145fe573d8080156145d2576040519150601f19603f3d011682016040523d82523d6000602084013e6145d7565b606091505b5080516145f65760405162461bcd60e51b8152600401610e9a90615e92565b805181602001fd5b6001600160e01b031916630a85bd0160e11b149050612038565b506001612038565b6001600160a01b03831661467b5761467681600880546000838152600960205260408120829055600182018355919091527ff3f7a9fe364faab93b216da50a3214154f22a0a2b415b23a84c8169e8b636ee30155565b61469e565b816001600160a01b0316836001600160a01b03161461469e5761469e83826146d8565b6001600160a01b0382166146b557610cf481614775565b826001600160a01b0316826001600160a01b031614610cf457610cf48282614824565b600060016146e584611ae1565b6146ef9190615bbd565b600083815260076020526040902054909150808214614742576001600160a01b03841660009081526006602090815260408083208584528252808320548484528184208190558352600790915290208190555b5060009182526007602090815260408084208490556001600160a01b039094168352600681528383209183525290812055565b60085460009061478790600190615bbd565b600083815260096020526040812054600880549394509092849081106147af576147af615567565b9060005260206000200154905080600883815481106147d0576147d0615567565b600091825260208083209091019290925582815260099091526040808220849055858252812055600880548061480857614808615f3e565b6001900381819060005260206000200160009055905550505050565b600061482f83611ae1565b6001600160a01b039093166000908152600660209081526040808320868452825280832085905593825260079052919091209190915550565b82805461487490615387565b90600052602060002090601f01602090048101928261489657600085556148dc565b82601f106148af5782800160ff198235161785556148dc565b828001600101855582156148dc579182015b828111156148dc5782358255916020019190600101906148c1565b506148e89291506148ec565b5090565b5b808211156148e857600081556001016148ed565b6001600160e01b0319811681146117d857600080fd5b60006020828403121561492957600080fd5b813561173981614901565b60008083601f84011261494657600080fd5b5081356001600160401b0381111561495d57600080fd5b6020830191508360208285010111156119cc57600080fd5b60008060006040848603121561498a57600080fd5b8335925060208401356001600160401b038111156149a757600080fd5b6149b386828701614934565b9497909650939450505050565b60005b838110156149db5781810151838201526020016149c3565b83811115611f7d5750506000910152565b60008151808452614a048160208601602086016149c0565b601f01601f19169290920160200192915050565b60208152600061173960208301846149ec565b80356001600160a01b038116811461115957600080fd5b600080600080600060608688031215614a5a57600080fd5b85356001600160401b0380821115614a7157600080fd5b614a7d89838a01614934565b90975095506020880135915080821115614a9657600080fd5b50614aa388828901614934565b9094509250614ab6905060408701614a2b565b90509295509295909350565b600060208284031215614ad457600080fd5b5035919050565b60008060408385031215614aee57600080fd5b614af783614a2b565b946020939093013593505050565b634e487b7160e01b600052602160045260246000fd5b6020810160038310614b2f57614b2f614b05565b91905290565b600060208284031215614b4757600080fd5b61173982614a2b565b8035801515811461115957600080fd5b60008060408385031215614b7357600080fd5b614b7c83614a2b565b9150614b8a60208401614b50565b90509250929050565b60008060208385031215614ba657600080fd5b82356001600160401b03811115614bbc57600080fd5b614bc885828601614934565b90969095509350505050565b600080600060608486031215614be957600080fd5b614bf284614a2b565b9250614c0060208501614a2b565b9150604084013590509250925092565b600060c08284031215614c2257600080fd5b50919050565b600060208284031215614c3a57600080fd5b81356001600160401b03811115614c5057600080fd5b61203884828501614c10565b60008060408385031215614c6f57600080fd5b50508035926020909101359150565b6020810160048310614b2f57614b2f614b05565b600060e08284031215614c2257600080fd5b600060208284031215614cb657600080fd5b81356001600160401b03811115614ccc57600080fd5b61203884828501614c92565b60006101408284031215614c2257600080fd5b600060208284031215614cfd57600080fd5b81356001600160401b03811115614d1357600080fd5b61203884828501614cd8565b600060208284031215614d3157600080fd5b81356003811061173957600080fd5b60008060008060608587031215614d5657600080fd5b84359350614d6660208601614a2b565b925060408501356001600160401b03811115614d8157600080fd5b614d8d87828801614934565b95989497509550505050565b600060208284031215614dab57600080fd5b81356001600160401b03811115614dc157600080fd5b82016101a0818503121561173957600080fd5b600060808284031215614c2257600080fd5b600080600060c08486031215614dfb57600080fd5b614e0484614a2b565b925060208401359150614e1a8560408601614dd4565b90509250925092565b60008060008060608587031215614e3957600080fd5b843593506020850135925060408501356001600160401b03811115614d8157600080fd5b600080600080600060a08688031215614e7557600080fd5b853594506020860135935060408601359250614e9360608701614a2b565b9150614ab660808701614a2b565b60008060008060e08587031215614eb757600080fd5b614ec085614a2b565b9350614ece60208601614a2b565b9250614edc60408601614b50565b9150614eeb8660608701614dd4565b905092959194509250565b6020808252825182820181905260009190848201906040850190845b81811015614f2e57835183529284019291840191600101614f12565b50909695505050505050565b600060208284031215614f4c57600080fd5b81356001600160401b03811115614f6257600080fd5b8201610100818503121561173957600080fd5b600060208284031215614f8757600080fd5b81356001600160401b03811115614f9d57600080fd5b8201610120818503121561173957600080fd5b634e487b7160e01b600052604160045260246000fd5b60405160c081016001600160401b0381118282101715614fe857614fe8614fb0565b60405290565b60405161012081016001600160401b0381118282101715614fe857614fe8614fb0565b604051601f8201601f191681016001600160401b038111828210171561503957615039614fb0565b604052919050565b60006001600160401b0382111561505a5761505a614fb0565b50601f01601f191660200190565b600082601f83011261507957600080fd5b813561508c61508782615041565b615011565b8181528460208386010111156150a157600080fd5b816020850160208301376000918101602001919091529392505050565b600080600080608085870312156150d457600080fd5b6150dd85614a2b565b93506150eb60208601614a2b565b92506040850135915060608501356001600160401b0381111561510d57600080fd5b61511987828801615068565b91505092959194509250565b6000806000806080858703121561513b57600080fd5b843593506020850135925061515260408601614a2b565b9150614eeb60608601614a2b565b600060c0828403121561517257600080fd5b6117398383614c10565b6000806040838503121561518f57600080fd5b82359150614b8a60208401614a2b565b6020815281516020820152602082015160408201526000604083015160c060608401526151cf60e08401826149ec565b9050606084015160018060a01b0380821660808601528060808701511660a08601528060a08701511660c086015250508091505092915050565b60008060a0838503121561521c57600080fd5b82359150614b8a8460208501614dd4565b6000806040838503121561524057600080fd5b61524983614a2b565b9150614b8a60208401614a2b565b60208152815160208201526000602083015160018060a01b0380821660408501528060408601511660608501525050606083015160c0608084015261529f60e08401826149ec565b90506080840151601f19808584030160a08601526152bd83836149ec565b925060a08601519150808584030160c0860152506152db82826149ec565b95945050505050565b60008083601f8401126152f657600080fd5b5081356001600160401b0381111561530d57600080fd5b6020830191508360208260051b85010111156119cc57600080fd5b6000806000806040858703121561533e57600080fd5b84356001600160401b038082111561535557600080fd5b615361888389016152e4565b9096509450602087013591508082111561537a57600080fd5b50614d8d878288016152e4565b600181811c9082168061539b57607f821691505b60208210811415614c2257634e487b7160e01b600052602260045260246000fd5b8183823760009101908152919050565b60208082526031908201527f4552433732313a207472616e736665722063616c6c6572206973206e6f74206f6040820152701ddb995c881b9bdc88185c1c1c9bdd9959607a1b606082015260800190565b600060c0823603121561542f57600080fd5b615437614fc6565b82358152602083013560208201526040830135604082015260608301356001600160401b038082111561546957600080fd5b61547536838701615068565b606084015261548660808601614a2b565b608084015260a085013591508082111561549f57600080fd5b506154ac36828601615068565b60a08301525092915050565b6000808335601e198436030181126154cf57600080fd5b8301803591506001600160401b038211156154e957600080fd5b6020019150368190038213156119cc57600080fd5b81835281816020850137506000828201602090810191909152601f909101601f19169091010190565b8681526001600160a01b038616602082015260a06040820181905260009061555290830186886154fe565b60608301949094525060800152949350505050565b634e487b7160e01b600052603260045260246000fd5b600060018060a01b03808b16835289602084015288604084015260e060608401526155ac60e08401888a6154fe565b951660808301525060a081019290925260c09091015295945050505050565b6000602082840312156155dd57600080fd5b5051919050565b6000808335601e198436030181126155fb57600080fd5b8301803591506001600160401b0382111561561557600080fd5b6020019150600581901b36038213156119cc57600080fd5b60006001600160fb1b0383111561564357600080fd5b8260051b80858437600092019182525092915050565b815160009082906020808601845b8381101561568357815185529382019390820190600101615667565b50929695505050505050565b6000808335601e198436030181126156a657600080fd5b83016020810192503590506001600160401b038111156156c557600080fd5b8036038313156119cc57600080fd5b6001600160a01b038816815260a060208083018290529082018790526000906001600160fb1b0388111561570757600080fd5b8760051b808a60c0860137830183810360c090810160408601528101879052600587901b810160e09081019082018960005b8a8110156157735784840360df19018352615754828d61568f565b61575f8682846154fe565b955050509185019190850190600101615739565b50505060608501969096525050506080015295945050505050565b600060208083850312156157a157600080fd5b82516001600160401b03808211156157b857600080fd5b818501915085601f8301126157cc57600080fd5b8151818111156157de576157de614fb0565b8060051b91506157ef848301615011565b818152918301840191848101908884111561580957600080fd5b938501935b838510156158275784518252938501939085019061580e565b98975050505050505050565b6000610120823603121561584657600080fd5b61584e614fee565b8235815260208301356001600160401b038082111561586c57600080fd5b61587836838701615068565b6020840152604085013560408401526060850135606084015260808501359150808211156158a557600080fd5b6158b136838701615068565b60808401526158c260a08601614a2b565b60a084015260c08501359150808211156158db57600080fd5b6158e736838701615068565b60c08401526158f860e08601614a2b565b60e08401526101009150818501358181111561591357600080fd5b61591f36828801615068565b8385015250505080915050919050565b6000815461593c81615387565b808552602060018381168015615959576001811461596d5761599b565b60ff1985168884015260408801955061599b565b866000528260002060005b858110156159935781548a8201860152908301908401615978565b890184019650505b505050505092915050565b85815284602082015260018060a01b038416604082015260a0606082015260006159d360a083018561592f565b8281036080840152615827818561592f565b6000602082840312156159f757600080fd5b81516001600160401b03811115615a0d57600080fd5b8201601f81018413615a1e57600080fd5b8051615a2c61508782615041565b818152856020838501011115615a4157600080fd5b6152db8260208301602086016149c0565b60a0815260006001600160a01b0380615a6a89614a2b565b1660a0840152615a7d602089018961568f565b60c080860152615a92610160860182846154fe565b915050615aa260408a018a61568f565b609f19808785030160e0880152615aba8483856154fe565b935084615ac960608e01614a2b565b16610100880152615add60808d018d61568f565b955092508087850301610120880152615af78486856154fe565b9450615b0660a08d018d61568f565b9450925080878603016101408801525050615b228383836154fe565b93505050508560208301528460408301528360608301528260808301529695505050505050565b604081526000615b5d6040830185876154fe565b9050826020830152949350505050565b606081526000615b816060830187896154fe565b8281036020840152615b948186886154fe565b9150508260408301529695505050505050565b634e487b7160e01b600052601160045260246000fd5b600082821015615bcf57615bcf615ba7565b500390565b60008219821115615be757615be7615ba7565b500190565b6080815284516080820152602085015160a0820152604085015160c08201526000606086015160c060e0840152615c276101408401826149ec565b60808801516001600160a01b031661010085015260a0880151848203607f1901610120860152909150615c5a82826149ec565b60208501979097525050506040810192909252606090910152919050565b600060208284031215615c8a57600080fd5b813560ff8116811461173957600080fd5b60006101408c8352806020840152615cb58184018d6149ec565b6001600160a01b038c811660408601528482036060860152909150615cda828c6149ec565b908a16608085015283810360a08501529050615cf681896149ec565b9150508560c08301528460e083015283610100830152826101208301529b9a5050505050505050505050565b6000808354615d3081615387565b60018281168015615d485760018114615d5957615683565b60ff19841687528287019450615683565b8760005260208060002060005b85811015615d7f5781548a820152908401908201615d66565b505050959091019695505050505050565b60c08152865160c0820152600060208801516101208060e0850152615db96101e08501836149ec565b915060408a0151610100818187015260608c01518387015260808c0151925060bf1991508186850301610140870152615df284846149ec565b935060a08c01519250615e116101608701846001600160a01b03169052565b60c08c015192508186850301610180870152615e2d84846149ec565b935060e08c01519250615e4c6101a08701846001600160a01b03169052565b8b01518584039091016101c08601529050615e6782826149ec565b602085019990995250505060408101949094526060840192909252608083015260a090910152919050565b60208082526032908201527f4552433732313a207472616e7366657220746f206e6f6e20455243373231526560408201527131b2b4bb32b91034b6b83632b6b2b73a32b960711b606082015260800190565b6001600160a01b0385811682528416602082015260408101839052608060608201819052600090615f17908301846149ec565b9695505050505050565b600060208284031215615f3357600080fd5b815161173981614901565b634e487b7160e01b600052603160045260246000fdfea2646970667358221220986c05a73f8dd52470ccfc1bcf6f88eec4f28abeb8df90c97918531494f5825f64736f6c634300080a0033",
  "linkReferences": {
    "contracts/libraries/InteractionLogic.sol": {
      "InteractionLogic": [
        {
          "length": 20,
          "start": 8404
        },
        {
          "length": 20,
          "start": 9399
        },
        {
          "length": 20,
          "start": 10448
        },
        {
          "length": 20,
          "start": 13726
        }
      ]
    },
    "contracts/libraries/ProfileTokenURILogic.sol": {
      "ProfileTokenURILogic": [
        {
          "length": 20,
          "start": 12009
        }
      ]
    },
    "contracts/libraries/PublishingLogic.sol": {
      "PublishingLogic": [
        {
          "length": 20,
          "start": 5524
        },
        {
          "length": 20,
          "start": 7089
        },
        {
          "length": 20,
          "start": 13955
        },
        {
          "length": 20,
          "start": 15637
        },
        {
          "length": 20,
          "start": 16019
        },
        {
          "length": 20,
          "start": 16349
        }
      ]
    }
  },
  "deployedLinkReferences": {
    "contracts/libraries/InteractionLogic.sol": {
      "InteractionLogic": [
        {
          "length": 20,
          "start": 8092
        },
        {
          "length": 20,
          "start": 9087
        },
        {
          "length": 20,
          "start": 10136
        },
        {
          "length": 20,
          "start": 13414
        }
      ]
    },
    "contracts/libraries/ProfileTokenURILogic.sol": {
      "ProfileTokenURILogic": [
        {
          "length": 20,
          "start": 11697
        }
      ]
    },
    "contracts/libraries/PublishingLogic.sol": {
      "PublishingLogic": [
        {
          "length": 20,
          "start": 5212
        },
        {
          "length": 20,
          "start": 6777
        },
        {
          "length": 20,
          "start": 13643
        },
        {
          "length": 20,
          "start": 15325
        },
        {
          "length": 20,
          "start": 15707
        },
        {
          "length": 20,
          "start": 16037
        }
      ]
    }
  }
}